S00D000055534152542E7372656388
S11300000C942A000C9447000C9447000C9447006D
S11300100C9447000C9447000C9447000C94470040
S11300200C9447000C9447000C9447000C94470030
S11300300C9447000C9447000C9447000C94470020
S11300400C9447000C9447000C9447000C94470010
S11300500C94470011241FBECFE5D8E0DEBFCDBF0E
S113006010E0A0E6B0E0ECEAF3E002C005900D92E7
S1130070A036B107D9F720E0A0E6B0E001C01D9298
S1130080A536B207E1F70E9449000C94D4010C9400
S1130090000040E855E260E070E080E00E949600D5
S11300A060E081E00E94730041E060E088E00E942B
S11300B0410180B5109261008093620089B190E0A3
S11300C0909362008093610082E081BB8BB1809346
S11300D064000E943D01809363000E9439018AE01C
S11300E00E943901F6CF813019F0823041F017C0F7
S11300F080B58F7B80BD80B58E7F80BD089580B52F
S11301008D7F80BD80B5806480BD611104C080B5E1
S11301108E7F80BD089580B58E7F80BD089580B5A3
S11301208F7B80BD80B58E7F80BD0895549A539A8D
S1130130813081F120F0823009F453C06FC0DB01BB
S1130140CA01880F991FAA1FBB1F880F991FAA1FD6
S1130150BB1F9C01AD01220F331F441F551F220FEB
S1130160331F441F551F60E072E18AE790E00E944C
S1130170B2018FEF820F89B980B58F7780BDDA0124
S1130180C9010197A109B109892F9A2FAB2FBB2768
S113019080BD0895DB01CA01880F991FAA1FBB1FE8
S11301A0880F991FAA1FBB1F9C01AD01220F331F8B
S11301B0441F551F60E072E18AE790E00E94B2019B
S11301C08FEF820F89B980B58F7780BDDA01C901BD
S11301D00197A109B109892F9A2FAB2FBB2780BDA5
S11301E008959A01AB01220F331F441F551F60E08D
S11301F072E18AE790E00E94B2018FEF820F89B921
S113020080B58F7780BDDA01C9010197A109B109D1
S1130210892F9A2FAB2FBB2780BD0895DB01CA011C
S1130220880F991FAA1FBB1F880F991FAA1FBB1FE6
S11302309C01AD01220F331F441F551F220F331F92
S1130240441F551F60E072E18AE790E00E94B2010A
S11302508FEF820F89B980B58F7780BDDA01C9012C
S11302600197A109B109892F9A2FAB2FBB2780BD14
S113027008955D9BFECF8CB908955F9BFECF8CB132
S1130280089590B5906890BD8730D9F028F48530F2
S113029041F0863071F02DC08830D9F0893009F1F1
S11302A028C080B58D7F80BD80B58B7F80BD52987E
S11302B027C080B5826080BD80B58B7F80BD529899
S11302C01FC080B58D7F80BD80B5846080BD52988D
S11302D017C080B5826080BD80B5846080BD5298AF
S11302E00FC080B5826080BD80B5846080BD529AA5
S11302F007C080B5826080BD80B5846080BD529A9D
S1130300613059F018F0623079F015C080B58F7EF5
S113031080BD80B58F7D80BD14C080B58F7E80BDCB
S113032080B5806280BD0DC080B5806180BD80B520
S1130330806280BD06C080B58F7E80BD80B58F7D14
S113034080BD413019F0423029F008C080B5877F64
S113035080BD089580B5886080BD089580B5877F8D
S113036080BD0895A1E21A2EAA1BBB1BFD010DC07E
S1130370AA1FBB1FEE1FFF1FA217B307E407F50751
S113038020F0A21BB30BE40BF50B661F771F881F2D
S1130390991F1A9469F760957095809590959B01C3
S10F03A0AC01BD01CF010895F894FFCF1B
S9030000FC
